:100000000C942A000C9447000C9447000C94470071
:100010000C9447000C9447000C9447000C94470044
:100020000C9447000C9447000C9447000C94470034
:100030000C9447000C9447000C9447000C94470024
:100040000C9447000C9447000C9447000C94470014
:100050000C94470011241FBECFE5D4E0DEBFCDBF16
:1000600010E0A8E6B0E001C01D92A837B107E1F7A3
:1000700010E0A0E6B0E0ECEBF5E202C005900D92D6
:10008000A836B107D9F70E94A3050C94DC120C9492
:100090000000EF92FF920F931F937B018C0120E0F1
:1000A00030E040E05FE40E94490388238CF0C801FF
:1000B000B70120E030E040E05FE40E94C1010E940F
:1000C000A9039B01AC01205030404040504806C07D
:1000D000C801B7010E94A9039B01AC01B901CA0183
:1000E0001F910F91FF90EF900895A0E0B0E0EBE733
:1000F000F0E00C947412DC012B01FA019C91923017
:1001000008F439C1EB018881823008F433C194309E
:1001100069F4843009F02FC111969C91119789815F
:10012000981709F428C1A0E6B0E025C1843009F48D
:1001300021C18230A9F4923009F01DC19A01AD01AC
:1001400088E0EA010990AE01E90109929E0181501F
:10015000C1F7E201898111969C918923818308C1AD
:10016000923009F407C112962D903C901397EB0141
:100170008A819B811496AD90BD90CD90DC901797AD
:10018000EC80FD800E811F819101281B390BB90184
:1001900037FF04C066277727621B730B6032710537
:1001A0000CF061C0121613066CF537014801062EDB
:1001B00004C096948794779467940A94D2F721E0C8
:1001C00030E040E050E004C0220F331F441F551FB1
:1001D0006A95D2F721503040404050402E213F21B7
:1001E00040235123211531054105510521F021E01E
:1001F00030E040E050E079018A01E628F72808293C
:1002000019293CC0232BD1F1260E371E350146019A
:10021000062E04C096948794779467940A94D2F734
:1002200021E030E040E050E004C0220F331F441FC3
:10023000551F6A95D2F721503040404050402A2146
:100240003B214C215D21211531054105510521F04E
:1002500021E030E040E050E059016A01A628B728CB
:10026000C828D9280BC0821593052CF01C01AA249C
:10027000BB24650103C0EE24FF24870111969C91E5
:10028000D20111968C91981709F445C0992339F041
:10029000A80197012A193B094C095D0906C0A6016E
:1002A00095012E193F09400B510B57FD08C01182D3
:1002B0003382228224833583468357831DC081E0A5
:1002C00081833382228288279927DC01821B930B4A
:1002D000A40BB50B84839583A683B7830DC0220F2F
:1002E000331F441F551F24833583468357838281E0
:1002F000938101979383828324813581468157813D
:10030000DA01C9010197A109B1098F5F9F4FAF4F72
:10031000BF4328F30BC0918333822282EA0CFB1C7B
:100320000C1D1D1DE482F5820683178383E0808304
:10033000248135814681578157FF1AC0C901AA27F8
:1003400097FDA095BA2F81709070A070B0705695EF
:10035000479537952795822B932BA42BB52B848318
:100360009583A683B7838281938101969383828349
:10037000DF0101C0D201CD01CDB7DEB7E2E10C94BF
:100380009012A0E2B0E0E7ECF1E00C9480126983F7
:100390007A838B839C832D833E834F835887E9E048
:1003A000EE2EF12CEC0EFD1ECE010196B7010E943F
:1003B000D2048E010F5E1F4FCE010596B8010E9438
:1003C000D2048A8991E089278A8BC701B801AE01DE
:1003D000475E5F4F0E9475000E94FD03A096E6E015
:1003E0000C949C12A0E2B0E0E8EFF1E00C948012D3
:1003F00069837A838B839C832D833E834F835887C5
:10040000F9E0EF2EF12CEC0EFD1ECE010196B701A6
:100410000E94D2048E010F5E1F4FCE010596B801D7
:100420000E94D204C701B801AE01475E5F4F0E942F
:1004300075000E94FD03A096E6E00C949C12A0E2D9
:10044000B0E0E5E2F2E00C94741269837A838B8366
:100450009C832D833E834F835887CE010196BE0136
:10046000675F7F4F0E94D204CE010596BE016F5E8A
:100470007F4F0E94D2049985923088F0898982301A
:10048000C8F0943019F4823051F404C0843029F457
:10049000923081F480E690E0C6C0923049F420E0CA
:1004A0009A858A89981321E02A87CE010996BBC0D4
:1004B000823049F420E09A858A89981321E02A8BBA
:1004C000CE014196B0C02D843E844F8458886D88FB
:1004D0007E888F88988CEE24FF248701AA24BB2471
:1004E000650140E050E060E070E0E0E0F0E0C10174
:1004F00081709070892BE9F0E60CF71C081D191D1E
:100500009A01AB012A0D3B1D4C1D5D1D80E090E062
:10051000A0E0B0E0E614F7040805190520F481E036
:1005200090E0A0E0B0E0BA01A901480F591F6A1F8E
:100530007B1FAA0CBB1CCC1CDD1C97FE08C081E0F5
:1005400090E0A0E0B0E0A82AB92ACA2ADB2A3196B6
:10055000E032F10549F0660C771C881C991C569412
:10056000479437942794C3CFFA85EA892B893C892D
:100570008B859C85280F391F2E5F3F4F17C0CA01FE
:1005800081709070892B61F016950795F794E79428
:1005900080E090E0A0E0B0E8E82AF92A0A2B1B2BC3
:1005A00076956795579547952F5F3F4F77FDE7CF36
:1005B0000CC0440F551F661F771F17FD4160EE0CDE
:1005C000FF1C001F111F21503040403090E05907A0
:1005D00090E0690790E4790760F32B8F3C8FDB0193
:1005E000CA018F779070A070B07080349105A1051A
:1005F000B10561F447FD0AC0E114F10401051105DC
:1006000029F0405C5F4F6F4F7F4F40781A8EFE1786
:1006100011F081E08A8F4D8F5E8F6F8F78A383E01A
:10062000898FCE0149960E94FD03A096E2E10C94C9
:100630009012A8E1B0E0EFE1F3E00C94801269833E
:100640007A838B839C832D833E834F83588789E0F5
:10065000E82EF12CEC0EFD1ECE010196B7010E9492
:10066000D2048E010F5E1F4FCE010596B8010E9485
:10067000D2048985823040F08989823028F0C70110
:10068000B8010E944A0501C08FEF6896E6E00C941D
:100690009C12A8E1B0E0EFE4F3E00C9480126983CF
:1006A0007A838B839C832D833E834F83588789E095
:1006B000E82EF12CEC0EFD1ECE010196B7010E9432
:1006C000D2048E010F5E1F4FCE010596B8010E9425
:1006D000D2048985823040F08989823028F0C701B0
:1006E000B8010E944A0501C08FEF6896E6E00C94BD
:1006F0009C12A8E1B0E0EFE7F3E00C94801269836C
:100700007A838B839C832D833E834F83588789E034
:10071000E82EF12CEC0EFD1ECE010196B7010E94D1
:10072000D2048E010F5E1F4FCE010596B8010E94C4
:10073000D2048985823040F08989823028F0C7014F
:10074000B8010E944A0501C081E06896E6E00C9479
:100750009C12ACE0B0E0EFEAF3E00C948412698301
:100760007A838B839C83CE010196BE016B5F7F4FA2
:100770000E94D2048D81823061F1823050F1843048
:1007800021F48E81882351F12EC02F81388537FDC9
:1007900020C06E812F3131051CF06623F9F023C093
:1007A0008EE190E0821B930B29853A854B855C8511
:1007B00004C056954795379527958A95D2F76623B5
:1007C000B1F050954095309521953F4F4F4F5F4F79
:1007D0000EC020E030E040E050E009C02FEF3FEFD6
:1007E0004FEF5FE704C020E030E040E050E8B9019F
:1007F000CA012C96E2E00C94A012DF92EF92FF92D5
:100800000F931F93FC01E480F58006811781D1804E
:100810008081823048F480E090E0A0E1B0E0E82AF6
:10082000F92A0A2B1B2BA5C0843009F49FC0823003
:1008300021F4EE24FF24870105C0E114F104010531
:10084000110519F4E0E0F0E096C0628173819FEF3A
:10085000623879070CF05BC022E83FEF261B370BAC
:100860002A3131052CF020E030E040E050E02AC091
:10087000B801A701022E04C0769567955795479554
:100880000A94D2F781E090E0A0E0B0E004C0880FC5
:10089000991FAA1FBB1F2A95D2F70197A109B10979
:1008A0008E219F21A023B1230097A105B10521F03E
:1008B00081E090E0A0E0B0E09A01AB01282B392B59
:1008C0004A2B5B2BDA01C9018F779070A070B07052
:1008D00080349105A105B10539F427FF09C0205CDA
:1008E0003F4F4F4F5F4F04C0215C3F4F4F4F5F4F13
:1008F000E0E0F0E02030A0E03A07A0E04A07A0E402
:100900005A0710F0E1E0F0E079018A0127C0603871
:10091000710564F5FB01E158FF4FD801C7018F77DE
:100920009070A070B07080349105A105B10539F4C4
:10093000E7FE0DC080E490E0A0E0B0E004C08FE3EB
:1009400090E0A0E0B0E0E80EF91E0A1F1B1F17FFA1
:1009500005C016950795F794E794319687E01695AC
:100960000795F794E7948A95D1F705C0EE24FF2404
:100970008701EFEFF0E06E2F679566276795902F60
:100980009F77D794DD24D7948E2F8695492F462BB9
:10099000582F5D29B701CA011F910F91FF90EF9069
:1009A000DF900895FC01DB01408151812281622F9B
:1009B0006F7770E0221F2227221F9381892F880FD3
:1009C000822B282F30E0991F9927991F11969C930D
:1009D000119721153105A9F54115510561057105DD
:1009E00011F482E037C082E89FEF13969C938E93B8
:1009F00012979A01AB0167E0220F331F441F551F66
:100A00006A95D1F783E08C930DC0220F331F441FEA
:100A1000551F12968D919C911397019713969C9355
:100A20008E931297203080E0380780E0480780E4FA
:100A3000580758F314962D933D934D935C93179755
:100A400008952F3F310579F4411551056105710570
:100A500019F484E08C93089564FF03C081E08C93C3
:100A600012C01C9210C02F57304013963C932E9307
:100A7000129783E08C9387E0440F551F661F771F02
:100A80008A95D1F7706414964D935D936D937C9322
:100A9000179708951F93DC01FB019C91923008F495
:100AA00047C08081823008F443C0943051F41196DD
:100AB0001C91843099F58181682F70E0611B710968
:100AC0003FC0843021F0923031F48230B9F181811D
:100AD000882389F12DC011961C9111978230F1F075
:100AE00081811817D9F412962D913C911397828128
:100AF00093818217930794F028173907BCF0149656
:100B00008D919D910D90BC91A02D248135814681C0
:100B10005781281739074A075B0718F4112341F05A
:100B20000AC082179307A407B50740F4112319F0F0
:100B300061E070E005C06FEF7FEF02C060E070E041
:100B4000CB011F910895DF93CF93CDB7DEB7AD975B
:100B50000FB6F894DEBF0FBECDBF0E944D09BAC0DC
:100B60000E944F08882F90E090936900809368005E
:100B700080916800909169008A3091052CF58091F0
:100B80006800909169009923FCF080916800909131
:100B900069000E94201280916C0090916D009C0170
:100BA000220F331FC901880F991F880F991F280F23
:100BB000391F8091680090916900820F931F909374
:100BC0006D0080936C0014C081E090E09093710000
:100BD00080937000809168009091690090937500F7
:100BE0008093740080917400909175000E94850D2F
:100BF00080E090E0AAEFB3E48FA398A7A9A7BAA7D3
:100C00006FA178A589A59AA520E030E04AE753E4D2
:100C10000E941F02DC01CB018BA39CA3ADA3BEA34A
:100C20006BA17CA18DA19EA120E030E040E85FE3B4
:100C30000E94790388232CF481E090E09AA389A391
:100C40003FC06BA17CA18DA19EA120E03FEF4FE7AB
:100C500057E40E94190318164CF56FA178A589A5D1
:100C60009AA520E030E040E251E40E941F02DC013E
:100C7000CB01BC01CD010E944900DC01CB019AA34C
:100C800089A30FC089E190E098A38F8F8F8D98A1E1
:100C90000197F1F798A38F8F89A19AA101979AA341
:100CA00089A389A19AA1009769F714C06BA17CA1BF
:100CB0008DA19EA10E944900DC01CB019AA389A3CA
:100CC00089A19AA19E8F8D8F8D8D9E8D0197F1F7B1
:100CD0009E8F8D8F8091700090917100009709F424
:100CE0003FCFAFC00E944F08882F90E090936B00D9
:100CF00080936A0080916A0090916B008A30910520
:100D00000CF098C080916A0090916B0099230CF4CC
:100D100091C080916A0090916B000E942012809196
:100D20006E0090916F009C01220F331FC901880F44
:100D3000991F880F991F280F391F80916A00909181
:100D40006B00820F931F90936F0080936E0080E082
:100D500090E0AAEFB3E4898F9A8FAB8FBC8F698D37
:100D60007A8D8B8D9C8D20E030E04AE753E40E9421
:100D70001F02DC01CB018D8B9E8BAF8BB88F6D89F1
:100D80007E898F89988D20E030E040E85FE30E9403
:100D9000790388232CF481E090E09C8B8B8B3FC0FF
:100DA0006D897E898F89988D20E03FEF4FE757E46A
:100DB0000E94190318164CF5698D7A8D8B8D9C8DC8
:100DC00020E030E040E251E40E941F02DC01CB0150
:100DD000BC01CD010E944900DC01CB019C8B8B8BB7
:100DE0000FC089E190E09A8B898B89899A89019754
:100DF000F1F79A8B898B8B899C8901979C8B8B8BC4
:100E00008B899C89009769F71CC06D897E898F89C1
:100E1000988D0E944900DC01CB019C8B8B8B8B89C8
:100E20009C89988B8F878F8598890197F1F7988B8C
:100E30008F8707C081E090E09093730080937200E9
:100E400007C08091720090917300009709F44ACF17
:100E50000E944F088D3309F090C04091740050916A
:100E600075005DA74CA78CA59DA58A32910509F454
:100E70004BC04CA55DA54B3251053CF48CA59DA5FE
:100E80008532910509F45FC078C04CA55DA54B3251
:100E9000510531F08CA59DA58D329105D1F06DC025
:100EA00020916C0030916D0080916E0090916F00E8
:100EB000820F931F909377008093760083E060E029
:100EC0000E94C51180917600909177000E942012B7
:100ED00054C020916C0030916D0080916E00909113
:100EE0006F00A901481B590BCA01909377008093AA
:100EF000760083E060E00E94C511809176009091B9
:100F000077000E94201239C020916C0030916D0052
:100F100080916E0090916F00AC01249FC001259FCD
:100F2000900D349F900D112490937700809376005C
:100F300083E060E00E94C511809176009091770077
:100F40000E9420121AC080916C0090916D00209137
:100F50006E0030916F00B9010E944D12CB01909349
:100F600077008093760083E060E00E94C511809155
:100F70007600909177000E9420120E944F088837D7
:100F800009F0A8CE109269001092680010926B00D0
:100F900010926A0010926D0010926C0010926F0017
:100FA00010926E00109271001092700010927300F7
:100FB000109272000E94431280E090E0AAEFB3E426
:100FC0008B879C87AD87BE876B857C858D859E854D
:100FD00020E030E04AE753E40E941F02DC01CB012D
:100FE0008F839887A987BA876F81788589859A8545
:100FF00020E030E040E85FE30E94790388232CF48E
:1010000081E090E09E838D833FC06F8178858985E4
:101010009A8520E03FEF4FE757E40E941903181626
:101020004CF56B857C858D859E8520E030E040E227
:1010300051E40E941F02DC01CB01BC01CD010E94E2
:101040004900DC01CB019E838D830FC089E190E0D4
:101050009C838B838B819C810197F1F79C838B838D
:101060008D819E8101979E838D838D819E810097C6
:1010700069F730CE6F81788589859A850E9449000D
:10108000DC01CB019E838D838D819E819A83898330
:1010900089819A810197F1F79A8389831BCEDF9327
:1010A000CF9300D0CDB7DEB71A824CC0EAE3F0E0B0
:1010B0008A81282F30E080E190E002C0880F991FDC
:1010C0002A95E2F78083EBE3F0E08A81282F30E075
:1010D00080E190E0022E02C0880F991F0A94E2F787
:1010E00080958083198228C0E9E3F0E08081282F71
:1010F00030E08981882F90E0A90102C0559547957D
:101100008A95E2F7CA0181709070009791F4898105
:10111000882F90E0880F991F880F991F982F8A8138
:10112000890F8F5F0E94A7080F900F90CF91DF91DA
:10113000089589818F5F898389818430A8F28A81AB
:101140008F5F8A838A81843008F4B0CFADCFDF937C
:10115000CF9300D000D0CDB7DEB789838981282F07
:1011600030E03C832B838B819C818830910509F48E
:1011700070C02B813C81293031055CF58B819C81CD
:101180008430910509F459C02B813C81253031050B
:101190009CF48B819C818230910509F448C02B819D
:1011A0003C81233031050CF045C08B819C8181301E
:1011B000910509F439C067C02B813C812630310587
:1011C00009F441C08B819C81873091050CF03EC0B1
:1011D00037C02B813C812C30310509F446C08B810E
:1011E0009C818D3091055CF42B813C812A30310546
:1011F000B1F18B819C818B309105A4F52DC02B81A1
:101200003C812E303105B9F18B819C818E30910566
:101210007CF12B813C812F30310579F18B819C81D0
:101220008031910569F12FC097E09A832EC028E0A4
:101230002A832BC039E03A8328C085E28A8325C0FF
:1012400094E09A8322C025E02A831FC036E03A83C7
:101250001CC08AE28A8319C091E09A8316C022E0FA
:101260002A8313C033E03A8310C08DE28A830DC015
:1012700098E79A830AC01A8208C02DE32A8305C022
:101280003BE23A8302C089818A838A810F900F9062
:101290000F900F90CF91DF910895DF93CF93CDB74B
:1012A000DEB7A7E3B0E0E7E3F0E080818E608C93E7
:1012B000A1E3B0E0E1E3F0E080818F608C9382E015
:1012C0000E946E0988E20E946E098CE00E946E09FD
:1012D00081E00E946E09CF91DF9108950F931F93D3
:1012E000DF93CF93CDB7DEB7C356D0400FB6F89497
:1012F000DEBF0FBECDBFFE01ED59FF4F8083A8E3D7
:10130000B0E0E8E3F0E080818D7F8C93A8E3B0E06B
:10131000E8E3F0E080818B7F8C93FE01E15AFF4F80
:1013200080E090E0A0E8BFE380839183A283B38351
:101330008E01055A1F4FFE01E15AFF4F60817181F6
:101340008281938120E030E04AE753E40E941F024B
:10135000DC01CB01F80180839183A283B383FE017A
:10136000E55AFF4F608171818281938120E030E0F6
:1013700040E85FE30E947903882344F4FE01E75AC2
:10138000FF4F81E090E09183808364C0FE01E55AC5
:10139000FF4F608171818281938120E03FEF4FE7B1
:1013A00057E40E94190318160CF043C0FE01E15ADD
:1013B000FF4F608171818281938120E030E040E2C3
:1013C00051E40E941F02DC01CB018E01075A1F4F1E
:1013D000BC01CD010E944900DC01CB01F8019183E1
:1013E00080831FC0FE01E95AFF4F89E190E091839D
:1013F0008083FE01E95AFF4F808191810197F1F7C7
:10140000FE01E95AFF4F91838083DE01A75ABF4F47
:10141000FE01E75AFF4F80819181019711969C93BD
:101420008E93FE01E75AFF4F808191810097D1F69C
:1014300027C08E01075A1F4FFE01E55AFF4F6081FA
:101440007181828193810E944900DC01CB01F80106
:1014500091838083DE01AB5ABF4FFE01E75AFF4FF5
:10146000808191818D939C93FE01EB5AFF4F808187
:1014700091810197F1F7FE01EB5AFF4F9183808331
:10148000A8E3B0E0E8E3F0E0808188608C93FE019F
:10149000EF5AFF4F80E090E0A0E8BFE380839183A4
:1014A000A283B3838E01035B1F4FFE01EF5AFF4FF0
:1014B000608171818281938120E030E04AE753E4CA
:1014C0000E941F02DC01CB01F80180839183A2837B
:1014D000B383FE01E35BFF4F608171818281938161
:1014E00020E030E040E85FE30E947903882344F481
:1014F000FE01E55BFF4F81E090E09183808364C053
:10150000FE01E35BFF4F608171818281938120E066
:101510003FEF4FE757E40E94190318160CF043C041
:10152000FE01EF5AFF4F608171818281938120E03B
:1015300030E040E251E40E941F02DC01CB018E0149
:10154000055B1F4FBC01CD010E944900DC01CB01AE
:10155000F801918380831FC0FE01E75BFF4F89E1A3
:1015600090E091838083FE01E75BFF4F8081918152
:101570000197F1F7FE01E75BFF4F91838083DE0166
:10158000A55BBF4FFE01E55BFF4F80819181019715
:1015900011969C938E93FE01E55BFF4F80819181B4
:1015A0000097D1F627C08E01055B1F4FFE01E35B5C
:1015B000FF4F60817181828193810E944900DC012B
:1015C000CB01F80191838083DE01A95BBF4FFE014F
:1015D000E55BFF4F808191818D939C93FE01E95BD8
:1015E000FF4F808191810197F1F7FE01E95BFF4F89
:1015F00091838083A2E3B0E0E2E3F0E08081982F62
:10160000907FFE01ED59FF4F808182958F70892B6D
:101610008C93FE01ED5BFF4F80E090E0A0E8BFE31C
:1016200080839183A283B3838E01015C1F4FFE01EF
:10163000ED5BFF4F608171818281938120E030E01A
:101640004AE753E40E941F02DC01CB01F8018083CA
:101650009183A283B383FE01FF96608171818281B1
:10166000938120E030E040E85FE30E947903882323
:101670002CF481E090E09EAF8DAF46C0FE01FF9656
:10168000608171818281938120E03FEF4FE757E4D1
:101690000E941903181664F5FE01ED5BFF4F60818F
:1016A00071818281938120E030E040E251E40E9428
:1016B0001F02DC01CB01BC01CD010E944900DC010D
:1016C000CB019EAF8DAF0FC089E190E09CAF8BAF97
:1016D0008BAD9CAD0197F1F79CAF8BAF8DAD9EADFF
:1016E00001979EAF8DAF8DAD9EAD009769F716C087
:1016F000FE01FF9660817181828193810E94490081
:10170000DC01CB019EAF8DAF8DAD9EAD9AAF89AFA1
:1017100089AD9AAD0197F1F79AAF89AFA8E3B0E030
:10172000E8E3F0E08081877F8C9380E090E0A0E8A0
:10173000BFE38DAB9EABAFABB8AF6DA97EA98FA950
:1017400098AD20E030E04AE753E40E941F02DC013C
:10175000CB0189AB9AABABABBCAB69A97AA98BA91E
:101760009CA920E030E040E85FE30E9479038823F1
:101770002CF481E090E098AB8FA73FC069A97AA9CB
:101780008BA99CA920E03FEF4FE757E40E94190383
:1017900018164CF56DA97EA98FA998AD20E030E010
:1017A00040E251E40E941F02DC01CB01BC01CD01EB
:1017B0000E944900DC01CB0198AB8FA70FC089E1E3
:1017C00090E09EA78DA78DA59EA50197F1F79EA7F6
:1017D0008DA78FA598A9019798AB8FA78FA598A9DA
:1017E000009769F714C069A97AA98BA99CA90E94DE
:1017F0004900DC01CB0198AB8FA78FA598A99CA7C6
:101800008BA78BA59CA50197F1F79CA78BA7A8E3B5
:10181000B0E0E8E3F0E0808188608C9380E090E0C5
:10182000A0E8BFE38FA398A7A9A7BAA76FA178A53F
:1018300089A59AA520E030E04AE753E40E941F0200
:10184000DC01CB018BA39CA3ADA3BEA36BA17CA1A8
:101850008DA19EA120E030E040E85FE30E94790383
:1018600088232CF481E090E09AA389A33FC06BA168
:101870007CA18DA19EA120E03FEF4FE757E40E949D
:10188000190318164CF56FA178A589A59AA520E033
:1018900030E040E251E40E941F02DC01CB01BC01B8
:1018A000CD010E944900DC01CB019AA389A30FC09E
:1018B00089E190E098A38F8F8F8D98A10197F1F720
:1018C00098A38F8F89A19AA101979AA389A389A12F
:1018D0009AA1009769F714C06BA17CA18DA19EA16C
:1018E0000E944900DC01CB019AA389A389A19AA196
:1018F0009E8F8D8F8D8D9E8D0197F1F79E8F8D8F91
:10190000A2E3B0E0E2E3F0E08081982F907FFE0157
:10191000ED59FF4F80818F70892B8C9380E090E090
:10192000A0E8BFE3898F9A8FAB8FBC8F698D7A8DCA
:101930008B8D9C8D20E030E04AE753E40E941F022B
:10194000DC01CB018D8B9E8BAF8BB88F6D897E892F
:101950008F89988D20E030E040E85FE30E947903B2
:1019600088232CF481E090E09C8B8B8B3FC06D89A9
:101970007E898F89988D20E03FEF4FE757E40E94E2
:10198000190318164CF5698D7A8D8B8D9C8D20E08E
:1019900030E040E251E40E941F02DC01CB01BC01B7
:1019A000CD010E944900DC01CB019C8B8B8B0FC0C9
:1019B00089E190E09A8B898B89899A890197F1F75F
:1019C0009A8B898B8B899C8901979C8B8B8B8B89BC
:1019D0009C89009769F714C06D897E898F89988DDD
:1019E0000E944900DC01CB019C8B8B8B8B899C89ED
:1019F000988B8F878F8598890197F1F7988B8F87C0
:101A0000A8E3B0E0E8E3F0E08081877F8C9380E09A
:101A100090E0A0E8BFE38B879C87AD87BE876B858E
:101A20007C858D859E8520E030E04AE753E40E9466
:101A30001F02DC01CB018F839887A987BA876F814A
:101A4000788589859A8520E030E040E85FE30E9450
:101A5000790388232CF481E090E09E838D833FC03E
:101A60006F81788589859A8520E03FEF4FE757E4BD
:101A70000E94190318164CF56B857C858D859E8513
:101A800020E030E040E251E40E941F02DC01CB0183
:101A9000BC01CD010E944900DC01CB019E838D83F6
:101AA0000FC089E190E09C838B838B819C8101979F
:101AB000F1F79C838B838D819E8101979E838D831B
:101AC0008D819E81009769F714C06F817885898523
:101AD0009A850E944900DC01CB019E838D838D8114
:101AE0009E819A83898389819A810197F1F79A83EC
:101AF0008983CD59DF4F0FB6F894DEBF0FBECDBF3F
:101B0000CF91DF911F910F9108950F931F93DF9352
:101B1000CF93CDB7DEB7C356D0400FB6F894DEBF33
:101B20000FBECDBFFE01ED59FF4F8083A8E3B0E0AB
:101B3000E8E3F0E0808182608C93A8E3B0E0E8E322
:101B4000F0E080818B7F8C93FE01E15AFF4F80E0B3
:101B500090E0A0E8BFE380839183A283B3838E01EA
:101B6000055A1F4FFE01E15AFF4F6081718182814A
:101B7000938120E030E04AE753E40E941F02DC0139
:101B8000CB01F80180839183A283B383FE01E55AE0
:101B9000FF4F608171818281938120E030E040E8D5
:101BA0005FE30E947903882344F4FE01E75AFF4F64
:101BB00081E090E09183808364C0FE01E55AFF4F8D
:101BC000608171818281938120E03FEF4FE757E48C
:101BD0000E94190318160CF043C0FE01E15AFF4F92
:101BE000608171818281938120E030E040E251E4A4
:101BF0000E941F02DC01CB018E01075A1F4FBC015E
:101C0000CD010E944900DC01CB01F8019183808362
:101C10001FC0FE01E95AFF4F89E190E09183808364
:101C2000FE01E95AFF4F808191810197F1F7FE0192
:101C3000E95AFF4F91838083DE01A75ABF4FFE010F
:101C4000E75AFF4F80819181019711969C938E9363
:101C5000FE01E75AFF4F808191810097D1F627C09E
:101C60008E01075A1F4FFE01E55AFF4F60817181B7
:101C7000828193810E944900DC01CB01F8019183AC
:101C80008083DE01AB5ABF4FFE01E75AFF4F8081D0
:101C900091818D939C93FE01EB5AFF4F808191813E
:101CA0000197F1F7FE01EB5AFF4F91838083A8E380
:101CB000B0E0E8E3F0E0808188608C93FE01EF5AA9
:101CC000FF4F80E090E0A0E8BFE380839183A28390
:101CD000B3838E01035B1F4FFE01EF5AFF4F6081FC
:101CE00071818281938120E030E04AE753E40E94D1
:101CF0001F02DC01CB01F80180839183A283B383AF
:101D0000FE01E35BFF4F608171818281938120E05E
:101D100030E040E85FE30E947903882344F4FE0149
:101D2000E55BFF4F81E090E09183808364C0FE011A
:101D3000E35BFF4F608171818281938120E03FEFFF
:101D40004FE757E40E94190318160CF043C0FE0138
:101D5000EF5AFF4F608171818281938120E030E0F2
:101D600040E251E40E941F02DC01CB018E01055BC1
:101D70001F4FBC01CD010E944900DC01CB01F801DD
:101D8000918380831FC0FE01E75BFF4F89E190E0F4
:101D900091838083FE01E75BFF4F808191810197F2
:101DA000F1F7FE01E75BFF4F91838083DE01A55BC6
:101DB000BF4FFE01E55BFF4F808191810197119636
:101DC0009C938E93FE01E55BFF4F8081918100978C
:101DD000D1F627C08E01055B1F4FFE01E35BFF4F6D
:101DE00060817181828193810E944900DC01CB0175
:101DF000F80191838083DE01A95BBF4FFE01E55BA3
:101E0000FF4F808191818D939C93FE01E95BFF4F91
:101E1000808191810197F1F7FE01E95BFF4F91838A
:101E20008083A2E3B0E0E2E3F0E08081982F907F2E
:101E3000FE01ED59FF4F808182958F70892B8C9325
:101E4000FE01ED5BFF4F80E090E0A0E8BFE3808300
:101E50009183A283B3838E01015C1F4FFE01ED5B72
:101E6000FF4F608171818281938120E030E04AE7F9
:101E700053E40E941F02DC01CB01F80180839183AF
:101E8000A283B383FE01FF96608171818281938179
:101E900020E030E040E85FE30E94790388232CF4DF
:101EA00081E090E09EAF8DAF46C0FE01FF9660815D
:101EB00071818281938120E03FEF4FE757E40E94D8
:101EC0001903181664F5FE01ED5BFF4F6081718107
:101ED0008281938120E030E040E251E40E941F02C1
:101EE000DC01CB01BC01CD010E944900DC01CB012A
:101EF0009EAF8DAF0FC089E190E09CAF8BAF8BADF3
:101F00009CAD0197F1F79CAF8BAF8DAD9EAD019766
:101F10009EAF8DAF8DAD9EAD009769F716C0FE01E7
:101F2000FF9660817181828193810E944900DC016A
:101F3000CB019EAF8DAF8DAD9EAD9AAF89AF89AD10
:101F40009AAD0197F1F79AAF89AFA8E3B0E0E8E363
:101F5000F0E08081877F8C9380E090E0A0E8BFE391
:101F60008DAB9EABAFABB8AF6DA97EA98FA998AD75
:101F700020E030E04AE753E40E941F02DC01CB017D
:101F800089AB9AABABABBCAB69A97AA98BA99CA96D
:101F900020E030E040E85FE30E94790388232CF4DE
:101FA00081E090E098AB8FA73FC069A97AA98BA97F
:101FB0009CA920E03FEF4FE757E40E941903181651
:101FC0004CF56DA97EA98FA998AD20E030E040E2E4
:101FD00051E40E941F02DC01CB01BC01CD010E9433
:101FE0004900DC01CB0198AB8FA70FC089E190E0DD
:101FF0009EA78DA78DA59EA50197F1F79EA78DA7FA
:102000008FA598A9019798AB8FA78FA598A900973E
:1020100069F714C069A97AA98BA99CA90E944900F3
:10202000DC01CB0198AB8FA78FA598A99CA78BA7A4
:102030008BA59CA50197F1F79CA78BA7A8E3B0E01F
:10204000E8E3F0E0808188608C9380E090E0A0E895
:10205000BFE38FA398A7A9A7BAA76FA178A589A561
:102060009AA520E030E04AE753E40E941F02DC0119
:10207000CB018BA39CA3ADA3BEA36BA17CA18DA11F
:102080009EA120E030E040E85FE30E9479038823CE
:102090002CF481E090E09AA389A33FC06BA17CA1BE
:1020A0008DA19EA120E03FEF4FE757E40E94190366
:1020B00018164CF56FA178A589A59AA520E030E007
:1020C00040E251E40E941F02DC01CB01BC01CD01C2
:1020D0000E944900DC01CB019AA389A30FC089E1CA
:1020E00090E098A38F8F8F8D98A10197F1F798A317
:1020F0008F8F89A19AA101979AA389A389A19AA1F7
:10210000009769F714C06BA17CA18DA19EA10E94CC
:102110004900DC01CB019AA389A389A19AA19E8FD2
:102120008D8F8D8D9E8D0197F1F79E8F8D8FA2E300
:10213000B0E0E2E3F0E08081982F907FFE01ED595E
:10214000FF4F80818F70892B8C9380E090E0A0E816
:10215000BFE3898F9A8FAB8FBC8F698D7A8D8B8D02
:102160009C8D20E030E04AE753E40E941F02DC012E
:10217000CB018D8B9E8BAF8BB88F6D897E898F89BC
:10218000988D20E030E040E85FE30E9479038823E7
:102190002CF481E090E09C8B8B8B3FC06D897E8915
:1021A0008F89988D20E03FEF4FE757E40E94190395
:1021B00018164CF5698D7A8D8B8D9C8D20E030E062
:1021C00040E251E40E941F02DC01CB01BC01CD01C1
:1021D0000E944900DC01CB019C8B8B8B0FC089E1F5
:1021E00090E09A8B898B89899A890197F1F79A8B6C
:1021F000898B8B899C8901979C8B8B8B8B899C8984
:10220000009769F714C06D897E898F89988D0E9427
:102210004900DC01CB019C8B8B8B8B899C89988B33
:102220008F878F8598890197F1F7988B8F87A8E31F
:10223000B0E0E8E3F0E08081877F8C9380E090E07D
:10224000A0E8BFE38B879C87AD87BE876B857C85C5
:102250008D859E8520E030E04AE753E40E941F020E
:10226000DC01CB018F839887A987BA876F81788536
:1022700089859A8520E030E040E85FE30E94790399
:1022800088232CF481E090E09E838D833FC06F8192
:10229000788589859A8520E03FEF4FE757E40E94D3
:1022A000190318164CF56B857C858D859E8520E07D
:1022B00030E040E251E40E941F02DC01CB01BC018E
:1022C000CD010E944900DC01CB019E838D830FC0AC
:1022D00089E190E09C838B838B819C810197F1F74E
:1022E0009C838B838D819E8101979E838D838D81BD
:1022F0009E81009769F714C06F81788589859A85DA
:102300000E944900DC01CB019E838D838D819E81DB
:102310009A83898389819A810197F1F79A838983C6
:10232000CD59DF4F0FB6F894DEBF0FBECDBFCF91B2
:10233000DF911F910F910895DF93CF9300D00F92FB
:10234000CDB7DEB79B838A8319820EC08981282F7F
:1023500030E08A819B81FC01E20FF31F80810E94A3
:10236000850D89818F5F89838981282F30E08A815B
:102370009B81FC01E20FF31F8081882339F70F90C6
:102380000F900F90CF91DF910895DF93CF9300D0FE
:1023900000D00F92CDB7DEB78A836B838A81282F56
:1023A00030E03D832C838C819D8181309105C1F08B
:1023B0002C813D81223031052CF48C819D81009748
:1023C00061F019C02C813D812230310569F08C818A
:1023D0009D818330910561F00EC08B8189830BC094
:1023E0008B81805C898307C08B81805F898303C078
:1023F0008B81805B8983898180680E946E090F9040
:102400000F900F900F900F90CF91DF910895DF9371
:10241000CF9300D000D0CDB7DEB789836A835C83C9
:102420004B8389816A810E94C5118B819C810E94A6
:102430009C110F900F900F900F90CF91DF91089506
:10244000DF93CF93CDB7DEB762970FB6F894DEBFB8
:102450000FBECDBF9A8B898B89899A899E012F5F88
:102460003F4FB9014AE050E00E94AB12CE01019605
:102470000E949C1162960FB6F894DEBF0FBECDBFCE
:10248000CF91DF910895DF93CF93CDB7DEB781E091
:102490000E946E09CF91DF91089597FB092E0726C0
:1024A0000AD077FD04D00CD006D000201AF4709525
:1024B00061957F4F0895F6F7909581959F4F089508
:1024C000AA1BBB1B51E107C0AA1FBB1FA617B7075A
:1024D00010F0A61BB70B881F991F5A95A9F7809576
:1024E0009095BC01CD0108952F923F924F925F923B
:1024F0006F927F928F929F92AF92BF92CF92DF9214
:10250000EF92FF920F931F93CF93DF93CDB7DEB778
:10251000CA1BDB0B0FB6F894DEBF0FBECDBF09940C
:102520002A88398848885F846E847D848C849B8463
:10253000AA84B984C884DF80EE80FD800C811B8171
:10254000AA81B981CE0FD11D0FB6F894DEBF0FBEA0
:10255000CDBFED010895FB019F01E8944230C4F026
:102560004532B4F44A3029F497FB1EF490958195D6
:102570009F4F642F77270E946012805D8A330CF092
:10258000895D8193CB010097A1F716F45DE2519329
:102590001082C9010C94CC12DC01FC01672F7191EF
:1025A0007723E1F7329704C07C916D937083629139
:0C25B000AE17BF07C8F30895F894FFCFE2
:0825BC00000000000000000017
:00000001FF
